{
  "abi": [
    {
      "inputs": [
        {
          "internalType": "contract IUmbra",
          "name": "_umbra",
          "type": "address"
        }
      ],
      "stateMutability": "nonpayable",
      "type": "constructor"
    },
    {
      "inputs": [],
      "name": "TransferAmmountMismatch",
      "type": "error"
    },
    {
      "inputs": [],
      "name": "ValueMismatch",
      "type": "error"
    },
    {
      "anonymous": false,
      "inputs": [
        {
          "indexed": true,
          "internalType": "address",
          "name": "sender",
          "type": "address"
        }
      ],
      "name": "BatchSendExecuted",
      "type": "event"
    },
    {
      "anonymous": false,
      "inputs": [
        {
          "indexed": true,
          "internalType": "address",
          "name": "previousOwner",
          "type": "address"
        },
        {
          "indexed": true,
          "internalType": "address",
          "name": "newOwner",
          "type": "address"
        }
      ],
      "name": "OwnershipTransferred",
      "type": "event"
    },
    {
      "inputs": [
        {
          "internalType": "contract IERC20",
          "name": "_token",
          "type": "address"
        }
      ],
      "name": "approveToken",
      "outputs": [],
      "stateMutability": "nonpayable",
      "type": "function"
    },
    {
      "inputs": [
        {
          "internalType": "uint256",
          "name": "_tollCommitment",
          "type": "uint256"
        },
        {
          "components": [
            {
              "internalType": "address payable",
              "name": "receiver",
              "type": "address"
            },
            {
              "internalType": "uint256",
              "name": "amount",
              "type": "uint256"
            },
            {
              "internalType": "bytes32",
              "name": "pkx",
              "type": "bytes32"
            },
            {
              "internalType": "bytes32",
              "name": "ciphertext",
              "type": "bytes32"
            }
          ],
          "internalType": "struct UmbraBatchSend.SendEth[]",
          "name": "_ethParams",
          "type": "tuple[]"
        },
        {
          "components": [
            {
              "internalType": "address",
              "name": "receiver",
              "type": "address"
            },
            {
              "internalType": "address",
              "name": "tokenAddr",
              "type": "address"
            },
            {
              "internalType": "uint256",
              "name": "amount",
              "type": "uint256"
            },
            {
              "internalType": "bytes32",
              "name": "pkx",
              "type": "bytes32"
            },
            {
              "internalType": "bytes32",
              "name": "ciphertext",
              "type": "bytes32"
            }
          ],
          "internalType": "struct UmbraBatchSend.SendToken[]",
          "name": "_tokenParams",
          "type": "tuple[]"
        },
        {
          "components": [
            {
              "internalType": "uint256",
              "name": "amount",
              "type": "uint256"
            },
            {
              "internalType": "address",
              "name": "tokenAddr",
              "type": "address"
            }
          ],
          "internalType": "struct UmbraBatchSend.TransferSummary[]",
          "name": "_transferSummary",
          "type": "tuple[]"
        }
      ],
      "name": "batchSend",
      "outputs": [],
      "stateMutability": "payable",
      "type": "function"
    },
    {
      "inputs": [
        {
          "internalType": "uint256",
          "name": "_tollCommitment",
          "type": "uint256"
        },
        {
          "components": [
            {
              "internalType": "address payable",
              "name": "receiver",
              "type": "address"
            },
            {
              "internalType": "uint256",
              "name": "amount",
              "type": "uint256"
            },
            {
              "internalType": "bytes32",
              "name": "pkx",
              "type": "bytes32"
            },
            {
              "internalType": "bytes32",
              "name": "ciphertext",
              "type": "bytes32"
            }
          ],
          "internalType": "struct UmbraBatchSend.SendEth[]",
          "name": "_params",
          "type": "tuple[]"
        }
      ],
      "name": "batchSendEth",
      "outputs": [],
      "stateMutability": "payable",
      "type": "function"
    },
    {
      "inputs": [
        {
          "internalType": "uint256",
          "name": "_tollCommitment",
          "type": "uint256"
        },
        {
          "components": [
            {
              "internalType": "address",
              "name": "receiver",
              "type": "address"
            },
            {
              "internalType": "address",
              "name": "tokenAddr",
              "type": "address"
            },
            {
              "internalType": "uint256",
              "name": "amount",
              "type": "uint256"
            },
            {
              "internalType": "bytes32",
              "name": "pkx",
              "type": "bytes32"
            },
            {
              "internalType": "bytes32",
              "name": "ciphertext",
              "type": "bytes32"
            }
          ],
          "internalType": "struct UmbraBatchSend.SendToken[]",
          "name": "_params",
          "type": "tuple[]"
        },
        {
          "components": [
            {
              "internalType": "uint256",
              "name": "amount",
              "type": "uint256"
            },
            {
              "internalType": "address",
              "name": "tokenAddr",
              "type": "address"
            }
          ],
          "internalType": "struct UmbraBatchSend.TransferSummary[]",
          "name": "_transferSummary",
          "type": "tuple[]"
        }
      ],
      "name": "batchSendTokens",
      "outputs": [],
      "stateMutability": "payable",
      "type": "function"
    },
    {
      "inputs": [],
      "name": "owner",
      "outputs": [
        {
          "internalType": "address",
          "name": "",
          "type": "address"
        }
      ],
      "stateMutability": "view",
      "type": "function"
    },
    {
      "inputs": [],
      "name": "renounceOwnership",
      "outputs": [],
      "stateMutability": "nonpayable",
      "type": "function"
    },
    {
      "inputs": [
        {
          "internalType": "address",
          "name": "newOwner",
          "type": "address"
        }
      ],
      "name": "transferOwnership",
      "outputs": [],
      "stateMutability": "nonpayable",
      "type": "function"
    }
  ],
  "bytecode": {
    "object": "0x60a060405234801561001057600080fd5b506040516111aa3803806111aa83398101604081905261002f91610099565b61003833610049565b6001600160a01b03166080526100c9565b600080546001600160a01b038381166001600160a01b0319831681178455604051919092169283917f8be0079c531659141344cd1fd0a4f28419497f9722a3daafe3b4186f6b6457e09190a35050565b6000602082840312156100ab57600080fd5b81516001600160a01b03811681146100c257600080fd5b9392505050565b6080516110b86100f2600039600081816103e701528181610551015261070701526110b86000f3fe6080604052600436106100705760003560e01c806380b2edd81161004e57806380b2edd8146100b25780638da5cb5b146100d2578063a6a5a1db146100fe578063f2fde38b1461011157600080fd5b806333d586791461007557806346e12f291461008a578063715018a61461009d575b600080fd5b610088610083366004610db4565b610131565b005b610088610098366004610e58565b6101c1565b3480156100a957600080fd5b506100886103bc565b3480156100be57600080fd5b506100886100cd366004610ee7565b6103d0565b3480156100de57600080fd5b50600054604080516001600160a01b039092168252519081900360200190f35b61008861010c366004610f04565b610411565b34801561011d57600080fd5b5061008861012c366004610ee7565b610476565b600061013d8489610f66565b6101488989896104f1565b6101529190610f85565b90508034146101745760405163dd8e4af760e01b815260040160405180910390fd5b61017f888888610543565b61018c88868686866101c1565b60405133907f5b4aa4fdb7b6e3ce88c3ccbf2e2c1d9a01b28e4234e107b644111c59de8b7cbe90600090a25050505050505050565b6101cb8386610f66565b3410156101eb5760405163dd8e4af760e01b815260040160405180910390fd5b60005b838110156102875784848281811061020857610208610f9d565b905060a00201604001356001600087878581811061022857610228610f9d565b905060a0020160200160208101906102409190610ee7565b6001600160a01b03166001600160a01b03168152602001908152602001600020600082825461026f9190610f85565b9091555081905061027f81610fb3565b9150506101ee565b508060005b8181101561037b5760008484838181106102a8576102a8610f9d565b90506040020160200160208101906102c09190610ee7565b90508484838181106102d4576102d4610f9d565b90506040020160000135600160008787868181106102f4576102f4610f9d565b905060400201602001602081019061030c9190610ee7565b6001600160a01b03166001600160a01b03168152602001908152602001600020541461034b576040516302e8a40960e31b815260040160405180910390fd5b61037281333088888781811061036357610363610f9d565b90506040020160000135610688565b5060010161028c565b5061038986868686866106f9565b60405133907f5b4aa4fdb7b6e3ce88c3ccbf2e2c1d9a01b28e4234e107b644111c59de8b7cbe90600090a2505050505050565b6103c46108c5565b6103ce600061091f565b565b6103d86108c5565b61040e6001600160a01b0382167f000000000000000000000000000000000000000000000000000000000000000060001961096f565b50565b61041c8383836104f1565b341461043b5760405163dd8e4af760e01b815260040160405180910390fd5b610446838383610543565b60405133907f5b4aa4fdb7b6e3ce88c3ccbf2e2c1d9a01b28e4234e107b644111c59de8b7cbe90600090a2505050565b61047e6108c5565b6001600160a01b0381166104e85760405162461bcd60e51b815260206004820152602660248201527f4f776e61626c653a206e6577206f776e657220697320746865207a65726f206160448201526564647265737360d01b60648201526084015b60405180910390fd5b61040e8161091f565b600081815b8181101561053a578585858381811061051157610511610f9d565b90506080020160200135846105269190610f85565b6105309190610f85565b92506001016104f6565b50509392505050565b8060005b81811015610681577f00000000000000000000000000000000000000000000000000000000000000006001600160a01b031663beb9addf8686868581811061059157610591610f9d565b905060800201602001356105a59190610f85565b8686858181106105b7576105b7610f9d565b6105cd9260206080909202019081019150610ee7565b888888878181106105e0576105e0610f9d565b905060800201604001358989888181106105fc576105fc610f9d565b6040516001600160e01b031960e08a901b1681526001600160a01b03909616600487015260248601949094525060448401919091526060608090920201013560648201526084016000604051808303818588803b15801561065c57600080fd5b505af1158015610670573d6000803e3d6000fd5b505060019093019250610547915050565b5050505050565b6040516001600160a01b03808516602483015283166044820152606481018290526106f39085906323b872dd60e01b906084015b60408051601f198184030181529190526020810180516001600160e01b03166001600160e01b031990931692909217909152610a89565b50505050565b8260005b8181101561085c577f00000000000000000000000000000000000000000000000000000000000000006001600160a01b031663b9bfabe18888888581811061074757610747610f9d565b61075d92602060a0909202019081019150610ee7565b89898681811061076f5761076f610f9d565b905060a0020160200160208101906107879190610ee7565b8a8a8781811061079957610799610f9d565b905060a00201604001358b8b888181106107b5576107b5610f9d565b905060a00201606001358c8c898181106107d1576107d1610f9d565b6040516001600160e01b031960e08b901b1681526001600160a01b0397881660048201529690951660248701525060448501929092526064840152608060a0909202010135608482015260a4016000604051808303818588803b15801561083757600080fd5b505af115801561084b573d6000803e3d6000fd5b5050600190930192506106fd915050565b508160005b818110156108bb5760006001600087878581811061088157610881610f9d565b90506040020160200160208101906108999190610ee7565b6001600160a01b03168152602081019190915260400160002055600101610861565b5050505050505050565b6000546001600160a01b031633146103ce5760405162461bcd60e51b815260206004820181905260248201527f4f776e61626c653a2063616c6c6572206973206e6f7420746865206f776e657260448201526064016104df565b600080546001600160a01b038381166001600160a01b0319831681178455604051919092169283917f8be0079c531659141344cd1fd0a4f28419497f9722a3daafe3b4186f6b6457e09190a35050565b8015806109e95750604051636eb1769f60e11b81523060048201526001600160a01b03838116602483015284169063dd62ed3e90604401602060405180830381865afa1580156109c3573d6000803e3d6000fd5b505050506040513d601f19601f820116820180604052508101906109e79190610fcc565b155b610a545760405162461bcd60e51b815260206004820152603660248201527f5361666545524332303a20617070726f76652066726f6d206e6f6e2d7a65726f60448201527520746f206e6f6e2d7a65726f20616c6c6f77616e636560501b60648201526084016104df565b6040516001600160a01b038316602482015260448101829052610a8490849063095ea7b360e01b906064016106bc565b505050565b6000610ade826040518060400160405280602081526020017f5361666545524332303a206c6f772d6c6576656c2063616c6c206661696c6564815250856001600160a01b0316610b5b9092919063ffffffff16565b805190915015610a845780806020019051810190610afc9190610fe5565b610a845760405162461bcd60e51b815260206004820152602a60248201527f5361666545524332303a204552433230206f7065726174696f6e20646964206e6044820152691bdd081cdd58d8d9595960b21b60648201526084016104df565b6060610b6a8484600085610b74565b90505b9392505050565b606082471015610bd55760405162461bcd60e51b815260206004820152602660248201527f416464726573733a20696e73756666696369656e742062616c616e636520666f6044820152651c8818d85b1b60d21b60648201526084016104df565b6001600160a01b0385163b610c2c5760405162461bcd60e51b815260206004820152601d60248201527f416464726573733a2063616c6c20746f206e6f6e2d636f6e747261637400000060448201526064016104df565b600080866001600160a01b03168587604051610c489190611033565b60006040518083038185875af1925050503d8060008114610c85576040519150601f19603f3d011682016040523d82523d6000602084013e610c8a565b606091505b5091509150610c9a828286610ca5565b979650505050505050565b60608315610cb4575081610b6d565b825115610cc45782518084602001fd5b8160405162461bcd60e51b81526004016104df919061104f565b60008083601f840112610cf057600080fd5b50813567ffffffffffffffff811115610d0857600080fd5b6020830191508360208260071b8501011115610d2357600080fd5b9250929050565b60008083601f840112610d3c57600080fd5b50813567ffffffffffffffff811115610d5457600080fd5b60208301915083602060a083028501011115610d2357600080fd5b60008083601f840112610d8157600080fd5b50813567ffffffffffffffff811115610d9957600080fd5b6020830191508360208260061b8501011115610d2357600080fd5b60008060008060008060006080888a031215610dcf57600080fd5b87359650602088013567ffffffffffffffff80821115610dee57600080fd5b610dfa8b838c01610cde565b909850965060408a0135915080821115610e1357600080fd5b610e1f8b838c01610d2a565b909650945060608a0135915080821115610e3857600080fd5b50610e458a828b01610d6f565b989b979a50959850939692959293505050565b600080600080600060608688031215610e7057600080fd5b85359450602086013567ffffffffffffffff80821115610e8f57600080fd5b610e9b89838a01610d2a565b90965094506040880135915080821115610eb457600080fd5b50610ec188828901610d6f565b969995985093965092949392505050565b6001600160a01b038116811461040e57600080fd5b600060208284031215610ef957600080fd5b8135610b6d81610ed2565b600080600060408486031215610f1957600080fd5b83359250602084013567ffffffffffffffff811115610f3757600080fd5b610f4386828701610cde565b9497909650939450505050565b634e487b7160e01b600052601160045260246000fd5b6000816000190483118215151615610f8057610f80610f50565b500290565b60008219821115610f9857610f98610f50565b500190565b634e487b7160e01b600052603260045260246000fd5b600060018201610fc557610fc5610f50565b5060010190565b600060208284031215610fde57600080fd5b5051919050565b600060208284031215610ff757600080fd5b81518015158114610b6d57600080fd5b60005b8381101561102257818101518382015260200161100a565b838111156106f35750506000910152565b60008251611045818460208701611007565b9190910192915050565b602081526000825180602084015261106e816040850160208701611007565b601f01601f1916919091016040019291505056fea264697066735822122008ddfbd954d41a93b80e11411531169273fbc1b6856e92d3475aa7cbb9acccae64736f6c634300080d0033",
    "linkReferences": {}
  },
  "methodIdentifiers": {
    "approveToken(address)": "80b2edd8",
    "batchSend(uint256,(address,uint256,bytes32,bytes32)[],(address,address,uint256,bytes32,bytes32)[],(uint256,address)[])": "33d58679",
    "batchSendEth(uint256,(address,uint256,bytes32,bytes32)[])": "a6a5a1db",
    "batchSendTokens(uint256,(address,address,uint256,bytes32,bytes32)[],(uint256,address)[])": "46e12f29",
    "owner()": "8da5cb5b",
    "renounceOwnership()": "715018a6",
    "transferOwnership(address)": "f2fde38b"
  },
  "id": 14
}