{
  "abi": [
    {
      "inputs": [
        {
          "internalType": "contract IUmbra",
          "name": "_umbra",
          "type": "address"
        }
      ],
      "stateMutability": "nonpayable",
      "type": "constructor"
    },
    {
      "inputs": [],
      "name": "NotSorted",
      "type": "error"
    },
    {
      "inputs": [],
      "name": "TooMuchEthSent",
      "type": "error"
    },
    {
      "anonymous": false,
      "inputs": [
        {
          "indexed": true,
          "internalType": "address",
          "name": "sender",
          "type": "address"
        }
      ],
      "name": "BatchSendExecuted",
      "type": "event"
    },
    {
      "anonymous": false,
      "inputs": [
        {
          "indexed": true,
          "internalType": "address",
          "name": "previousOwner",
          "type": "address"
        },
        {
          "indexed": true,
          "internalType": "address",
          "name": "newOwner",
          "type": "address"
        }
      ],
      "name": "OwnershipTransferred",
      "type": "event"
    },
    {
      "inputs": [
        {
          "internalType": "contract IERC20",
          "name": "_token",
          "type": "address"
        }
      ],
      "name": "approveToken",
      "outputs": [],
      "stateMutability": "nonpayable",
      "type": "function"
    },
    {
      "inputs": [
        {
          "internalType": "uint256",
          "name": "_tollCommitment",
          "type": "uint256"
        },
        {
          "components": [
            {
              "internalType": "address",
              "name": "receiver",
              "type": "address"
            },
            {
              "internalType": "address",
              "name": "tokenAddr",
              "type": "address"
            },
            {
              "internalType": "uint256",
              "name": "amount",
              "type": "uint256"
            },
            {
              "internalType": "bytes32",
              "name": "pkx",
              "type": "bytes32"
            },
            {
              "internalType": "bytes32",
              "name": "ciphertext",
              "type": "bytes32"
            }
          ],
          "internalType": "struct UmbraBatchSend.SendData[]",
          "name": "_data",
          "type": "tuple[]"
        }
      ],
      "name": "batchSend",
      "outputs": [],
      "stateMutability": "payable",
      "type": "function"
    },
    {
      "inputs": [],
      "name": "owner",
      "outputs": [
        {
          "internalType": "address",
          "name": "",
          "type": "address"
        }
      ],
      "stateMutability": "view",
      "type": "function"
    },
    {
      "inputs": [],
      "name": "renounceOwnership",
      "outputs": [],
      "stateMutability": "nonpayable",
      "type": "function"
    },
    {
      "inputs": [
        {
          "internalType": "address",
          "name": "newOwner",
          "type": "address"
        }
      ],
      "name": "transferOwnership",
      "outputs": [],
      "stateMutability": "nonpayable",
      "type": "function"
    }
  ],
  "bytecode": {
    "object": "0x60a060405234801561001057600080fd5b5060405161118038038061118083398101604081905261002f91610099565b61003833610049565b6001600160a01b03166080526100c9565b600080546001600160a01b038381166001600160a01b0319831681178455604051919092169283917f8be0079c531659141344cd1fd0a4f28419497f9722a3daafe3b4186f6b6457e09190a35050565b6000602082840312156100ab57600080fd5b81516001600160a01b03811681146100c257600080fd5b9392505050565b60805161108e6100f2600039600081816102ef0152818161044c015261066b015261108e6000f3fe60806040526004361061005a5760003560e01c806380b2edd81161004357806380b2edd8146100895780638da5cb5b146100a9578063f2fde38b146100e257600080fd5b8063715018a61461005f5780637d703ead14610076575b600080fd5b34801561006b57600080fd5b50610074610102565b005b610074610084366004610e3d565b610116565b34801561009557600080fd5b506100746100a4366004610ede565b610647565b3480156100b557600080fd5b506000546040805173ffffffffffffffffffffffffffffffffffffffff9092168252519081900360200190f35b3480156100ee57600080fd5b506100746100fd366004610ede565b6106b3565b61010a61076c565b61011460006107ed565b565b47816000805b828210156102885760008173ffffffffffffffffffffffffffffffffffffffff1687878581811061014f5761014f610f02565b905060a0020160200160208101906101679190610ede565b73ffffffffffffffffffffffffffffffffffffffff1610156101b5576040517fba50f91100000000000000000000000000000000000000000000000000000000815260040160405180910390fd5b8686848181106101c7576101c7610f02565b905060a0020160200160208101906101df9190610ede565b91505b8686848181106101f4576101f4610f02565b905060a0020160400135816102099190610f60565b9050600183019250838310801561027457508173ffffffffffffffffffffffffffffffffffffffff1687878581811061024457610244610f02565b905060a00201602001602081019061025c9190610ede565b73ffffffffffffffffffffffffffffffffffffffff16145b6101e2576102828282610862565b5061011c565b60005b838110156105d05773eeeeeeeeeeeeeeeeeeeeeeeeeeeeeeeeeeeeeeee8787838181106102ba576102ba610f02565b905060a0020160200160208101906102d29190610ede565b73ffffffffffffffffffffffffffffffffffffffff160361044a577f000000000000000000000000000000000000000000000000000000000000000073ffffffffffffffffffffffffffffffffffffffff1663beb9addf8989898581811061033c5761033c610f02565b905060a00201604001356103509190610f60565b89898581811061036257610362610f02565b61037892602060a0909202019081019150610ede565b8b8b8b8781811061038b5761038b610f02565b905060a00201606001358c8c888181106103a7576103a7610f02565b6040517fffffffff0000000000000000000000000000000000000000000000000000000060e08a901b16815273ffffffffffffffffffffffffffffffffffffffff90961660048701526024860194909452506044840191909152608060a090920201013560648201526084016000604051808303818588803b15801561042c57600080fd5b505af1158015610440573d6000803e3d6000fd5b50505050506105c8565b7f000000000000000000000000000000000000000000000000000000000000000073ffffffffffffffffffffffffffffffffffffffff1663b9bfabe18989898581811061049957610499610f02565b6104af92602060a0909202019081019150610ede565b8a8a868181106104c1576104c1610f02565b905060a0020160200160208101906104d99190610ede565b8b8b878181106104eb576104eb610f02565b905060a00201604001358c8c8881811061050757610507610f02565b905060a00201606001358d8d8981811061052357610523610f02565b6040517fffffffff0000000000000000000000000000000000000000000000000000000060e08b901b16815273ffffffffffffffffffffffffffffffffffffffff97881660048201529690951660248701525060448501929092526064840152608060a0909202010135608482015260a4016000604051808303818588803b1580156105ae57600080fd5b505af11580156105c2573d6000803e3d6000fd5b50505050505b60010161028b565b506105db3485610f79565b4714610613576040517f8e96d31f00000000000000000000000000000000000000000000000000000000815260040160405180910390fd5b60405133907f5b4aa4fdb7b6e3ce88c3ccbf2e2c1d9a01b28e4234e107b644111c59de8b7cbe90600090a250505050505050565b61064f61076c565b6106b073ffffffffffffffffffffffffffffffffffffffff82167f00000000000000000000000000000000000000000000000000000000000000007fffffffffffffffffffffffffffffffffffffffffffffffffffffffffffffffff6108b9565b50565b6106bb61076c565b73ffffffffffffffffffffffffffffffffffffffff8116610763576040517f08c379a000000000000000000000000000000000000000000000000000000000815260206004820152602660248201527f4f776e61626c653a206e6577206f776e657220697320746865207a65726f206160448201527f646472657373000000000000000000000000000000000000000000000000000060648201526084015b60405180910390fd5b6106b0816107ed565b60005473ffffffffffffffffffffffffffffffffffffffff163314610114576040517f08c379a000000000000000000000000000000000000000000000000000000000815260206004820181905260248201527f4f776e61626c653a2063616c6c6572206973206e6f7420746865206f776e6572604482015260640161075a565b6000805473ffffffffffffffffffffffffffffffffffffffff8381167fffffffffffffffffffffffff0000000000000000000000000000000000000000831681178455604051919092169283917f8be0079c531659141344cd1fd0a4f28419497f9722a3daafe3b4186f6b6457e09190a35050565b73ffffffffffffffffffffffffffffffffffffffff821673eeeeeeeeeeeeeeeeeeeeeeeeeeeeeeeeeeeeeeee146108b5576108b573ffffffffffffffffffffffffffffffffffffffff8316333084610abe565b5050565b80158061095957506040517fdd62ed3e00000000000000000000000000000000000000000000000000000000815230600482015273ffffffffffffffffffffffffffffffffffffffff838116602483015284169063dd62ed3e90604401602060405180830381865afa158015610933573d6000803e3d6000fd5b505050506040513d601f19601f820116820180604052508101906109579190610f8c565b155b6109e5576040517f08c379a000000000000000000000000000000000000000000000000000000000815260206004820152603660248201527f5361666545524332303a20617070726f76652066726f6d206e6f6e2d7a65726f60448201527f20746f206e6f6e2d7a65726f20616c6c6f77616e636500000000000000000000606482015260840161075a565b60405173ffffffffffffffffffffffffffffffffffffffff8316602482015260448101829052610ab99084907f095ea7b300000000000000000000000000000000000000000000000000000000906064015b604080517fffffffffffffffffffffffffffffffffffffffffffffffffffffffffffffffe08184030181529190526020810180517bffffffffffffffffffffffffffffffffffffffffffffffffffffffff167fffffffff0000000000000000000000000000000000000000000000000000000090931692909217909152610b22565b505050565b60405173ffffffffffffffffffffffffffffffffffffffff80851660248301528316604482015260648101829052610b1c9085907f23b872dd0000000000000000000000000000000000000000000000000000000090608401610a37565b50505050565b6000610b84826040518060400160405280602081526020017f5361666545524332303a206c6f772d6c6576656c2063616c6c206661696c65648152508573ffffffffffffffffffffffffffffffffffffffff16610c2e9092919063ffffffff16565b805190915015610ab95780806020019051810190610ba29190610fa5565b610ab9576040517f08c379a000000000000000000000000000000000000000000000000000000000815260206004820152602a60248201527f5361666545524332303a204552433230206f7065726174696f6e20646964206e60448201527f6f74207375636365656400000000000000000000000000000000000000000000606482015260840161075a565b6060610c3d8484600085610c45565b949350505050565b606082471015610cd7576040517f08c379a000000000000000000000000000000000000000000000000000000000815260206004820152602660248201527f416464726573733a20696e73756666696369656e742062616c616e636520666f60448201527f722063616c6c0000000000000000000000000000000000000000000000000000606482015260840161075a565b6000808673ffffffffffffffffffffffffffffffffffffffff168587604051610d009190610feb565b60006040518083038185875af1925050503d8060008114610d3d576040519150601f19603f3d011682016040523d82523d6000602084013e610d42565b606091505b5091509150610d5387838387610d5e565b979650505050505050565b60608315610df4578251600003610ded5773ffffffffffffffffffffffffffffffffffffffff85163b610ded576040517f08c379a000000000000000000000000000000000000000000000000000000000815260206004820152601d60248201527f416464726573733a2063616c6c20746f206e6f6e2d636f6e7472616374000000604482015260640161075a565b5081610c3d565b610c3d8383815115610e095781518083602001fd5b806040517f08c379a000000000000000000000000000000000000000000000000000000000815260040161075a9190611007565b600080600060408486031215610e5257600080fd5b83359250602084013567ffffffffffffffff80821115610e7157600080fd5b818601915086601f830112610e8557600080fd5b813581811115610e9457600080fd5b87602060a083028501011115610ea957600080fd5b6020830194508093505050509250925092565b73ffffffffffffffffffffffffffffffffffffffff811681146106b057600080fd5b600060208284031215610ef057600080fd5b8135610efb81610ebc565b9392505050565b7f4e487b7100000000000000000000000000000000000000000000000000000000600052603260045260246000fd5b7f4e487b7100000000000000000000000000000000000000000000000000000000600052601160045260246000fd5b80820180821115610f7357610f73610f31565b92915050565b81810381811115610f7357610f73610f31565b600060208284031215610f9e57600080fd5b5051919050565b600060208284031215610fb757600080fd5b81518015158114610efb57600080fd5b60005b83811015610fe2578181015183820152602001610fca565b50506000910152565b60008251610ffd818460208701610fc7565b9190910192915050565b6020815260008251806020840152611026816040850160208701610fc7565b601f017fffffffffffffffffffffffffffffffffffffffffffffffffffffffffffffffe016919091016040019291505056fea2646970667358221220b1edd7ff79c71bb95bc51b6f486ab6af1b7836fcf000ceb2ddd67570ba5a802564736f6c63430008100033",
    "linkReferences": {}
  },
  "methodIdentifiers": {
    "approveToken(address)": "80b2edd8",
    "batchSend(uint256,(address,address,uint256,bytes32,bytes32)[])": "7d703ead",
    "owner()": "8da5cb5b",
    "renounceOwnership()": "715018a6",
    "transferOwnership(address)": "f2fde38b"
  },
  "id": 16
}