{
  "_format": "hh-sol-artifact-1",
  "contractName": "UmbraBatchSend",
  "sourceName": "contracts/UmbraBatchSend.sol",
  "abi": [
    {
      "inputs": [
        {
          "internalType": "contract IUmbra",
          "name": "_umbra",
          "type": "address"
        }
      ],
      "stateMutability": "nonpayable",
      "type": "constructor"
    },
    {
      "inputs": [],
      "name": "TransferAmountMismatch",
      "type": "error"
    },
    {
      "inputs": [],
      "name": "ValueMismatch",
      "type": "error"
    },
    {
      "anonymous": false,
      "inputs": [
        {
          "indexed": true,
          "internalType": "address",
          "name": "sender",
          "type": "address"
        }
      ],
      "name": "BatchSendExecuted",
      "type": "event"
    },
    {
      "anonymous": false,
      "inputs": [
        {
          "indexed": true,
          "internalType": "address",
          "name": "previousOwner",
          "type": "address"
        },
        {
          "indexed": true,
          "internalType": "address",
          "name": "newOwner",
          "type": "address"
        }
      ],
      "name": "OwnershipTransferred",
      "type": "event"
    },
    {
      "inputs": [
        {
          "internalType": "contract IERC20",
          "name": "_token",
          "type": "address"
        }
      ],
      "name": "approveToken",
      "outputs": [],
      "stateMutability": "nonpayable",
      "type": "function"
    },
    {
      "inputs": [
        {
          "internalType": "uint256",
          "name": "_tollCommitment",
          "type": "uint256"
        },
        {
          "components": [
            {
              "internalType": "address payable",
              "name": "receiver",
              "type": "address"
            },
            {
              "internalType": "uint256",
              "name": "amount",
              "type": "uint256"
            },
            {
              "internalType": "bytes32",
              "name": "pkx",
              "type": "bytes32"
            },
            {
              "internalType": "bytes32",
              "name": "ciphertext",
              "type": "bytes32"
            }
          ],
          "internalType": "struct UmbraBatchSend.SendEth[]",
          "name": "_ethParams",
          "type": "tuple[]"
        },
        {
          "components": [
            {
              "internalType": "address",
              "name": "receiver",
              "type": "address"
            },
            {
              "internalType": "address",
              "name": "tokenAddr",
              "type": "address"
            },
            {
              "internalType": "uint256",
              "name": "amount",
              "type": "uint256"
            },
            {
              "internalType": "bytes32",
              "name": "pkx",
              "type": "bytes32"
            },
            {
              "internalType": "bytes32",
              "name": "ciphertext",
              "type": "bytes32"
            }
          ],
          "internalType": "struct UmbraBatchSend.SendToken[]",
          "name": "_tokenParams",
          "type": "tuple[]"
        },
        {
          "components": [
            {
              "internalType": "uint256",
              "name": "amount",
              "type": "uint256"
            },
            {
              "internalType": "address",
              "name": "tokenAddr",
              "type": "address"
            }
          ],
          "internalType": "struct UmbraBatchSend.TransferSummary[]",
          "name": "_transferSummary",
          "type": "tuple[]"
        }
      ],
      "name": "batchSend",
      "outputs": [],
      "stateMutability": "payable",
      "type": "function"
    },
    {
      "inputs": [
        {
          "internalType": "uint256",
          "name": "_tollCommitment",
          "type": "uint256"
        },
        {
          "components": [
            {
              "internalType": "address payable",
              "name": "receiver",
              "type": "address"
            },
            {
              "internalType": "uint256",
              "name": "amount",
              "type": "uint256"
            },
            {
              "internalType": "bytes32",
              "name": "pkx",
              "type": "bytes32"
            },
            {
              "internalType": "bytes32",
              "name": "ciphertext",
              "type": "bytes32"
            }
          ],
          "internalType": "struct UmbraBatchSend.SendEth[]",
          "name": "_params",
          "type": "tuple[]"
        }
      ],
      "name": "batchSendEth",
      "outputs": [],
      "stateMutability": "payable",
      "type": "function"
    },
    {
      "inputs": [
        {
          "internalType": "uint256",
          "name": "_tollCommitment",
          "type": "uint256"
        },
        {
          "components": [
            {
              "internalType": "address",
              "name": "receiver",
              "type": "address"
            },
            {
              "internalType": "address",
              "name": "tokenAddr",
              "type": "address"
            },
            {
              "internalType": "uint256",
              "name": "amount",
              "type": "uint256"
            },
            {
              "internalType": "bytes32",
              "name": "pkx",
              "type": "bytes32"
            },
            {
              "internalType": "bytes32",
              "name": "ciphertext",
              "type": "bytes32"
            }
          ],
          "internalType": "struct UmbraBatchSend.SendToken[]",
          "name": "_params",
          "type": "tuple[]"
        },
        {
          "components": [
            {
              "internalType": "uint256",
              "name": "amount",
              "type": "uint256"
            },
            {
              "internalType": "address",
              "name": "tokenAddr",
              "type": "address"
            }
          ],
          "internalType": "struct UmbraBatchSend.TransferSummary[]",
          "name": "_transferSummary",
          "type": "tuple[]"
        }
      ],
      "name": "batchSendTokens",
      "outputs": [],
      "stateMutability": "payable",
      "type": "function"
    },
    {
      "inputs": [],
      "name": "owner",
      "outputs": [
        {
          "internalType": "address",
          "name": "",
          "type": "address"
        }
      ],
      "stateMutability": "view",
      "type": "function"
    },
    {
      "inputs": [],
      "name": "renounceOwnership",
      "outputs": [],
      "stateMutability": "nonpayable",
      "type": "function"
    },
    {
      "inputs": [
        {
          "internalType": "address",
          "name": "newOwner",
          "type": "address"
        }
      ],
      "name": "transferOwnership",
      "outputs": [],
      "stateMutability": "nonpayable",
      "type": "function"
    }
  ],
  "bytecode": "0x60a06040523480156200001157600080fd5b506040516200220a3803806200220a8339818101604052810190620000379190620001dc565b620000576200004b6200009260201b60201c565b6200009a60201b60201c565b8073ffffffffffffffffffffffffffffffffffffffff1660808173ffffffffffffffffffffffffffffffffffffffff1681525050506200020e565b600033905090565b60008060009054906101000a900473ffffffffffffffffffffffffffffffffffffffff169050816000806101000a81548173ffffffffffffffffffffffffffffffffffffffff021916908373ffffffffffffffffffffffffffffffffffffffff1602179055508173ffffffffffffffffffffffffffffffffffffffff168173ffffffffffffffffffffffffffffffffffffffff167f8be0079c531659141344cd1fd0a4f28419497f9722a3daafe3b4186f6b6457e060405160405180910390a35050565b600080fd5b600073ffffffffffffffffffffffffffffffffffffffff82169050919050565b6000620001908262000163565b9050919050565b6000620001a48262000183565b9050919050565b620001b68162000197565b8114620001c257600080fd5b50565b600081519050620001d681620001ab565b92915050565b600060208284031215620001f557620001f46200015e565b5b60006200020584828501620001c5565b91505092915050565b608051611fd262000238600039600081816103620152818161060601526109610152611fd26000f3fe6080604052600436106100705760003560e01c806380b2edd81161004e57806380b2edd8146100c45780638da5cb5b146100ed578063a6a5a1db14610118578063f2fde38b1461013457610070565b806333d586791461007557806346e12f2914610091578063715018a6146100ad575b600080fd5b61008f600480360381019061008a9190611346565b61015d565b005b6100ab60048036038101906100a6919061140f565b610278565b005b3480156100b957600080fd5b506100c2610341565b005b3480156100d057600080fd5b506100eb60048036038101906100e69190611514565b610355565b005b3480156100f957600080fd5b506101026103cb565b60405161010f9190611550565b60405180910390f35b610132600480360381019061012d919061156b565b6103f4565b005b34801561014057600080fd5b5061015b600480360381019061015691906115f7565b6104b9565b005b610214878787808060200260200160405190810160405280939291908181526020016000905b828210156101b3578484839050608002018036038101906101a491906117a1565b81526020019060010190610183565b50505050508686808060200260200160405190810160405280939291908181526020016000905b8282101561020a57848483905060a002018036038101906101fb919061185a565b815260200190600101906101da565b505050505061053c565b61021f8787876105f1565b61022c8785858585610779565b3373ffffffffffffffffffffffffffffffffffffffff167f5b4aa4fdb7b6e3ce88c3ccbf2e2c1d9a01b28e4234e107b644111c59de8b7cbe60405160405180910390a250505050505050565b61032d85600067ffffffffffffffff8111156102975761029661163a565b5b6040519080825280602002602001820160405280156102d057816020015b6102bd611146565b8152602001906001900390816102b55790505b508686808060200260200160405190810160405280939291908181526020016000905b8282101561032357848483905060a00201803603810190610314919061185a565b815260200190600101906102f3565b505050505061053c565b61033a8585858585610779565b5050505050565b610349610b83565b6103536000610c01565b565b61035d610b83565b6103c87f00000000000000000000000000000000000000000000000000000000000000007fffffffffffffffffffffffffffffffffffffffffffffffffffffffffffffffff8373ffffffffffffffffffffffffffffffffffffffff16610cc59092919063ffffffff16565b50565b60008060009054906101000a900473ffffffffffffffffffffffffffffffffffffffff16905090565b6104a9838383808060200260200160405190810160405280939291908181526020016000905b8282101561044a5784848390506080020180360381019061043b91906117a1565b8152602001906001019061041a565b5050505050600067ffffffffffffffff81111561046a5761046961163a565b5b6040519080825280602002602001820160405280156104a357816020015b61049061118a565b8152602001906001900390816104885790505b5061053c565b6104b48383836105f1565b505050565b6104c1610b83565b600073ffffffffffffffffffffffffffffffffffffffff168173ffffffffffffffffffffffffffffffffffffffff1603610530576040517f08c379a00000000000000000000000000000000000000000000000000000000081526004016105279061190a565b60405180910390fd5b61053981610c01565b50565b6000808351905060005b8181101561059557858582815181106105625761056161192a565b5b6020026020010151602001516105789190611988565b836105839190611988565b925061058e81610e14565b9050610546565b508251856105a391906119bc565b826105ae9190611988565b9150813410156105ea576040517fdd8e4af700000000000000000000000000000000000000000000000000000000815260040160405180910390fd5b5050505050565b600082829050905060005b8181101561072f577f000000000000000000000000000000000000000000000000000000000000000073ffffffffffffffffffffffffffffffffffffffff1663beb9addf868686858181106106545761065361192a565b5b905060800201602001356106689190611988565b86868581811061067b5761067a61192a565b5b905060800201600001602081019061069391906119fe565b888888878181106106a7576106a661192a565b5b905060800201604001358989888181106106c4576106c361192a565b5b905060800201606001356040518663ffffffff1660e01b81526004016106ed9493929190611a58565b6000604051808303818588803b15801561070657600080fd5b505af115801561071a573d6000803e3d6000fd5b505050505061072881610e14565b90506105fc565b503373ffffffffffffffffffffffffffffffffffffffff167f5b4aa4fdb7b6e3ce88c3ccbf2e2c1d9a01b28e4234e107b644111c59de8b7cbe60405160405180910390a250505050565b600084849050905060005b818110156108385785858281811061079f5761079e61192a565b5b905060a0020160400135600160008888858181106107c0576107bf61192a565b5b905060a0020160200160208101906107d891906115f7565b73ffffffffffffffffffffffffffffffffffffffff1673ffffffffffffffffffffffffffffffffffffffff16815260200190815260200160002060008282546108219190611988565b9250508190555061083181610e14565b9050610784565b50600083839050905060005b818110156109535760008585838181106108615761086061192a565b5b905060400201602001602081019061087991906115f7565b905060008686848181106108905761088f61192a565b5b90506040020160000135905080600160008473ffffffffffffffffffffffffffffffffffffffff1673ffffffffffffffffffffffffffffffffffffffff1681526020019081526020016000205414610914576040517fb0a6ea2900000000000000000000000000000000000000000000000000000000815260040160405180910390fd5b6109413330838573ffffffffffffffffffffffffffffffffffffffff16610e21909392919063ffffffff16565b505061094c81610e14565b9050610844565b5060005b82811015610aab577f000000000000000000000000000000000000000000000000000000000000000073ffffffffffffffffffffffffffffffffffffffff1663b9bfabe1898989858181106109af576109ae61192a565b5b905060a0020160000160208101906109c791906115f7565b8a8a868181106109da576109d961192a565b5b905060a0020160200160208101906109f291906115f7565b8b8b87818110610a0557610a0461192a565b5b905060a00201604001358c8c88818110610a2257610a2161192a565b5b905060a00201606001358d8d89818110610a3f57610a3e61192a565b5b905060a00201608001356040518763ffffffff1660e01b8152600401610a69959493929190611a9d565b6000604051808303818588803b158015610a8257600080fd5b505af1158015610a96573d6000803e3d6000fd5b5050505050610aa481610e14565b9050610957565b5060005b81811015610b3657600060016000878785818110610ad057610acf61192a565b5b9050604002016020016020810190610ae891906115f7565b73ffffffffffffffffffffffffffffffffffffffff1673ffffffffffffffffffffffffffffffffffffffff16815260200190815260200160002081905550610b2f81610e14565b9050610aaf565b503373ffffffffffffffffffffffffffffffffffffffff167f5b4aa4fdb7b6e3ce88c3ccbf2e2c1d9a01b28e4234e107b644111c59de8b7cbe60405160405180910390a250505050505050565b610b8b610eaa565b73ffffffffffffffffffffffffffffffffffffffff16610ba96103cb565b73ffffffffffffffffffffffffffffffffffffffff1614610bff576040517f08c379a0000000000000000000000000000000000000000000000000000000008152600401610bf690611b3c565b60405180910390fd5b565b60008060009054906101000a900473ffffffffffffffffffffffffffffffffffffffff169050816000806101000a81548173ffffffffffffffffffffffffffffffffffffffff021916908373ffffffffffffffffffffffffffffffffffffffff1602179055508173ffffffffffffffffffffffffffffffffffffffff168173ffffffffffffffffffffffffffffffffffffffff167f8be0079c531659141344cd1fd0a4f28419497f9722a3daafe3b4186f6b6457e060405160405180910390a35050565b6000811480610d4f575060008373ffffffffffffffffffffffffffffffffffffffff1663dd62ed3e30856040518363ffffffff1660e01b8152600401610d0c929190611b5c565b602060405180830381865afa158015610d29573d6000803e3d6000fd5b505050506040513d601f19601f82011682018060405250810190610d4d9190611b9a565b145b610d8e576040517f08c379a0000000000000000000000000000000000000000000000000000000008152600401610d8590611c39565b60405180910390fd5b610e0f8363095ea7b360e01b8484604051602401610dad929190611c59565b604051602081830303815290604052907bffffffffffffffffffffffffffffffffffffffffffffffffffffffff19166020820180517bffffffffffffffffffffffffffffffffffffffffffffffffffffffff8381831617835250505050610eb2565b505050565b6000600182019050919050565b610ea4846323b872dd60e01b858585604051602401610e4293929190611c82565b604051602081830303815290604052907bffffffffffffffffffffffffffffffffffffffffffffffffffffffff19166020820180517bffffffffffffffffffffffffffffffffffffffffffffffffffffffff8381831617835250505050610eb2565b50505050565b600033905090565b6000610f14826040518060400160405280602081526020017f5361666545524332303a206c6f772d6c6576656c2063616c6c206661696c65648152508573ffffffffffffffffffffffffffffffffffffffff16610f799092919063ffffffff16565b9050600081511115610f745780806020019051810190610f349190611cf1565b610f73576040517f08c379a0000000000000000000000000000000000000000000000000000000008152600401610f6a90611d90565b60405180910390fd5b5b505050565b6060610f888484600085610f91565b90509392505050565b606082471015610fd6576040517f08c379a0000000000000000000000000000000000000000000000000000000008152600401610fcd90611e22565b60405180910390fd5b6000808673ffffffffffffffffffffffffffffffffffffffff168587604051610fff9190611eb3565b60006040518083038185875af1925050503d806000811461103c576040519150601f19603f3d011682016040523d82523d6000602084013e611041565b606091505b50915091506110528783838761105e565b92505050949350505050565b606083156110c05760008351036110b857611078856110d3565b6110b7576040517f08c379a00000000000000000000000000000000000000000000000000000000081526004016110ae90611f16565b60405180910390fd5b5b8290506110cb565b6110ca83836110f6565b5b949350505050565b6000808273ffffffffffffffffffffffffffffffffffffffff163b119050919050565b6000825111156111095781518083602001fd5b806040517f08c379a000000000000000000000000000000000000000000000000000000000815260040161113d9190611f7a565b60405180910390fd5b6040518060800160405280600073ffffffffffffffffffffffffffffffffffffffff1681526020016000815260200160008019168152602001600080191681525090565b6040518060a00160405280600073ffffffffffffffffffffffffffffffffffffffff168152602001600073ffffffffffffffffffffffffffffffffffffffff1681526020016000815260200160008019168152602001600080191681525090565b6000604051905090565b600080fd5b600080fd5b6000819050919050565b611212816111ff565b811461121d57600080fd5b50565b60008135905061122f81611209565b92915050565b600080fd5b600080fd5b600080fd5b60008083601f84011261125a57611259611235565b5b8235905067ffffffffffffffff8111156112775761127661123a565b5b6020830191508360808202830111156112935761129261123f565b5b9250929050565b60008083601f8401126112b0576112af611235565b5b8235905067ffffffffffffffff8111156112cd576112cc61123a565b5b6020830191508360a08202830111156112e9576112e861123f565b5b9250929050565b60008083601f84011261130657611305611235565b5b8235905067ffffffffffffffff8111156113235761132261123a565b5b60208301915083604082028301111561133f5761133e61123f565b5b9250929050565b60008060008060008060006080888a031215611365576113646111f5565b5b60006113738a828b01611220565b975050602088013567ffffffffffffffff811115611394576113936111fa565b5b6113a08a828b01611244565b9650965050604088013567ffffffffffffffff8111156113c3576113c26111fa565b5b6113cf8a828b0161129a565b9450945050606088013567ffffffffffffffff8111156113f2576113f16111fa565b5b6113fe8a828b016112f0565b925092505092959891949750929550565b60008060008060006060868803121561142b5761142a6111f5565b5b600061143988828901611220565b955050602086013567ffffffffffffffff81111561145a576114596111fa565b5b6114668882890161129a565b9450945050604086013567ffffffffffffffff811115611489576114886111fa565b5b611495888289016112f0565b92509250509295509295909350565b600073ffffffffffffffffffffffffffffffffffffffff82169050919050565b60006114cf826114a4565b9050919050565b60006114e1826114c4565b9050919050565b6114f1816114d6565b81146114fc57600080fd5b50565b60008135905061150e816114e8565b92915050565b60006020828403121561152a576115296111f5565b5b6000611538848285016114ff565b91505092915050565b61154a816114c4565b82525050565b60006020820190506115656000830184611541565b92915050565b600080600060408486031215611584576115836111f5565b5b600061159286828701611220565b935050602084013567ffffffffffffffff8111156115b3576115b26111fa565b5b6115bf86828701611244565b92509250509250925092565b6115d4816114c4565b81146115df57600080fd5b50565b6000813590506115f1816115cb565b92915050565b60006020828403121561160d5761160c6111f5565b5b600061161b848285016115e2565b91505092915050565b600080fd5b6000601f19601f8301169050919050565b7f4e487b7100000000000000000000000000000000000000000000000000000000600052604160045260246000fd5b61167282611629565b810181811067ffffffffffffffff821117156116915761169061163a565b5b80604052505050565b60006116a46111eb565b90506116b08282611669565b919050565b60006116c0826114a4565b9050919050565b6116d0816116b5565b81146116db57600080fd5b50565b6000813590506116ed816116c7565b92915050565b6000819050919050565b611706816116f3565b811461171157600080fd5b50565b600081359050611723816116fd565b92915050565b60006080828403121561173f5761173e611624565b5b611749608061169a565b90506000611759848285016116de565b600083015250602061176d84828501611220565b602083015250604061178184828501611714565b604083015250606061179584828501611714565b60608301525092915050565b6000608082840312156117b7576117b66111f5565b5b60006117c584828501611729565b91505092915050565b600060a082840312156117e4576117e3611624565b5b6117ee60a061169a565b905060006117fe848285016115e2565b6000830152506020611812848285016115e2565b602083015250604061182684828501611220565b604083015250606061183a84828501611714565b606083015250608061184e84828501611714565b60808301525092915050565b600060a082840312156118705761186f6111f5565b5b600061187e848285016117ce565b91505092915050565b600082825260208201905092915050565b7f4f776e61626c653a206e6577206f776e657220697320746865207a65726f206160008201527f6464726573730000000000000000000000000000000000000000000000000000602082015250565b60006118f4602683611887565b91506118ff82611898565b604082019050919050565b60006020820190508181036000830152611923816118e7565b9050919050565b7f4e487b7100000000000000000000000000000000000000000000000000000000600052603260045260246000fd5b7f4e487b7100000000000000000000000000000000000000000000000000000000600052601160045260246000fd5b6000611993826111ff565b915061199e836111ff565b92508282019050808211156119b6576119b5611959565b5b92915050565b60006119c7826111ff565b91506119d2836111ff565b92508282026119e0816111ff565b915082820484148315176119f7576119f6611959565b5b5092915050565b600060208284031215611a1457611a136111f5565b5b6000611a22848285016116de565b91505092915050565b611a34816116b5565b82525050565b611a43816111ff565b82525050565b611a52816116f3565b82525050565b6000608082019050611a6d6000830187611a2b565b611a7a6020830186611a3a565b611a876040830185611a49565b611a946060830184611a49565b95945050505050565b600060a082019050611ab26000830188611541565b611abf6020830187611541565b611acc6040830186611a3a565b611ad96060830185611a49565b611ae66080830184611a49565b9695505050505050565b7f4f776e61626c653a2063616c6c6572206973206e6f7420746865206f776e6572600082015250565b6000611b26602083611887565b9150611b3182611af0565b602082019050919050565b60006020820190508181036000830152611b5581611b19565b9050919050565b6000604082019050611b716000830185611541565b611b7e6020830184611541565b9392505050565b600081519050611b9481611209565b92915050565b600060208284031215611bb057611baf6111f5565b5b6000611bbe84828501611b85565b91505092915050565b7f5361666545524332303a20617070726f76652066726f6d206e6f6e2d7a65726f60008201527f20746f206e6f6e2d7a65726f20616c6c6f77616e636500000000000000000000602082015250565b6000611c23603683611887565b9150611c2e82611bc7565b604082019050919050565b60006020820190508181036000830152611c5281611c16565b9050919050565b6000604082019050611c6e6000830185611541565b611c7b6020830184611a3a565b9392505050565b6000606082019050611c976000830186611541565b611ca46020830185611541565b611cb16040830184611a3a565b949350505050565b60008115159050919050565b611cce81611cb9565b8114611cd957600080fd5b50565b600081519050611ceb81611cc5565b92915050565b600060208284031215611d0757611d066111f5565b5b6000611d1584828501611cdc565b91505092915050565b7f5361666545524332303a204552433230206f7065726174696f6e20646964206e60008201527f6f74207375636365656400000000000000000000000000000000000000000000602082015250565b6000611d7a602a83611887565b9150611d8582611d1e565b604082019050919050565b60006020820190508181036000830152611da981611d6d565b9050919050565b7f416464726573733a20696e73756666696369656e742062616c616e636520666f60008201527f722063616c6c0000000000000000000000000000000000000000000000000000602082015250565b6000611e0c602683611887565b9150611e1782611db0565b604082019050919050565b60006020820190508181036000830152611e3b81611dff565b9050919050565b600081519050919050565b600081905092915050565b60005b83811015611e76578082015181840152602081019050611e5b565b60008484015250505050565b6000611e8d82611e42565b611e978185611e4d565b9350611ea7818560208601611e58565b80840191505092915050565b6000611ebf8284611e82565b915081905092915050565b7f416464726573733a2063616c6c20746f206e6f6e2d636f6e7472616374000000600082015250565b6000611f00601d83611887565b9150611f0b82611eca565b602082019050919050565b60006020820190508181036000830152611f2f81611ef3565b9050919050565b600081519050919050565b6000611f4c82611f36565b611f568185611887565b9350611f66818560208601611e58565b611f6f81611629565b840191505092915050565b60006020820190508181036000830152611f948184611f41565b90509291505056fea26469706673582212201f4cf4ec989bb12fc1c110bd00adf00563e747a888affbe1e81eb71f1c193fba64736f6c63430008110033",
  "linkReferences": {},
  "deployedLinkReferences": {}
}