{
  "_format": "hh-sol-artifact-1",
  "contractName": "UmbraBatchSend",
  "sourceName": "contracts/UmbraBatchSend.sol",
  "abi": [
    {
      "inputs": [
        {
          "internalType": "contract IUmbra",
          "name": "_umbra",
          "type": "address"
        }
      ],
      "stateMutability": "nonpayable",
      "type": "constructor"
    },
    {
      "inputs": [],
      "name": "NotSorted",
      "type": "error"
    },
    {
      "inputs": [],
      "name": "TooMuchEthSent",
      "type": "error"
    },
    {
      "anonymous": false,
      "inputs": [
        {
          "indexed": true,
          "internalType": "address",
          "name": "sender",
          "type": "address"
        }
      ],
      "name": "BatchSendExecuted",
      "type": "event"
    },
    {
      "anonymous": false,
      "inputs": [
        {
          "indexed": true,
          "internalType": "address",
          "name": "previousOwner",
          "type": "address"
        },
        {
          "indexed": true,
          "internalType": "address",
          "name": "newOwner",
          "type": "address"
        }
      ],
      "name": "OwnershipTransferred",
      "type": "event"
    },
    {
      "inputs": [
        {
          "internalType": "contract IERC20",
          "name": "_token",
          "type": "address"
        }
      ],
      "name": "approveToken",
      "outputs": [],
      "stateMutability": "nonpayable",
      "type": "function"
    },
    {
      "inputs": [
        {
          "internalType": "uint256",
          "name": "_tollCommitment",
          "type": "uint256"
        },
        {
          "components": [
            {
              "internalType": "address",
              "name": "receiver",
              "type": "address"
            },
            {
              "internalType": "address",
              "name": "tokenAddr",
              "type": "address"
            },
            {
              "internalType": "uint256",
              "name": "amount",
              "type": "uint256"
            },
            {
              "internalType": "bytes32",
              "name": "pkx",
              "type": "bytes32"
            },
            {
              "internalType": "bytes32",
              "name": "ciphertext",
              "type": "bytes32"
            }
          ],
          "internalType": "struct UmbraBatchSend.SendData[]",
          "name": "_data",
          "type": "tuple[]"
        }
      ],
      "name": "batchSend",
      "outputs": [],
      "stateMutability": "payable",
      "type": "function"
    },
    {
      "inputs": [],
      "name": "owner",
      "outputs": [
        {
          "internalType": "address",
          "name": "",
          "type": "address"
        }
      ],
      "stateMutability": "view",
      "type": "function"
    },
    {
      "inputs": [],
      "name": "renounceOwnership",
      "outputs": [],
      "stateMutability": "nonpayable",
      "type": "function"
    },
    {
      "inputs": [
        {
          "internalType": "address",
          "name": "newOwner",
          "type": "address"
        }
      ],
      "name": "transferOwnership",
      "outputs": [],
      "stateMutability": "nonpayable",
      "type": "function"
    }
  ],
  "bytecode": "0x60a06040523480156200001157600080fd5b506040516200190b3803806200190b8339818101604052810190620000379190620001dc565b620000576200004b6200009260201b60201c565b6200009a60201b60201c565b8073ffffffffffffffffffffffffffffffffffffffff1660808173ffffffffffffffffffffffffffffffffffffffff1681525050506200020e565b600033905090565b60008060009054906101000a900473ffffffffffffffffffffffffffffffffffffffff169050816000806101000a81548173ffffffffffffffffffffffffffffffffffffffff021916908373ffffffffffffffffffffffffffffffffffffffff1602179055508173ffffffffffffffffffffffffffffffffffffffff168173ffffffffffffffffffffffffffffffffffffffff167f8be0079c531659141344cd1fd0a4f28419497f9722a3daafe3b4186f6b6457e060405160405180910390a35050565b600080fd5b600073ffffffffffffffffffffffffffffffffffffffff82169050919050565b6000620001908262000163565b9050919050565b6000620001a48262000183565b9050919050565b620001b68162000197565b8114620001c257600080fd5b50565b600081519050620001d681620001ab565b92915050565b600060208284031215620001f557620001f46200015e565b5b60006200020584828501620001c5565b91505092915050565b6080516116d3620002386000396000818161031701528181610437015261062001526116d36000f3fe60806040526004361061004a5760003560e01c8063715018a61461004f5780637d703ead1461006657806380b2edd8146100825780638da5cb5b146100ab578063f2fde38b146100d6575b600080fd5b34801561005b57600080fd5b506100646100ff565b005b610080600480360381019061007b9190610e16565b610113565b005b34801561008e57600080fd5b506100a960048036038101906100a49190610ee6565b610613565b005b3480156100b757600080fd5b506100c0610689565b6040516100cd9190610f22565b60405180910390f35b3480156100e257600080fd5b506100fd60048036038101906100f89190610f69565b6106b2565b005b610107610735565b61011160006107b3565b565b600047905060008383905090506000805b828210156102995760008173ffffffffffffffffffffffffffffffffffffffff1687878581811061015857610157610f96565b5b905060a0020160200160208101906101709190610f69565b73ffffffffffffffffffffffffffffffffffffffff1610156101be576040517fba50f91100000000000000000000000000000000000000000000000000000000815260040160405180910390fd5b8686848181106101d1576101d0610f96565b5b905060a0020160200160208101906101e99190610f69565b91505b8686848181106101ff576101fe610f96565b5b905060a0020160400135816102149190610ff4565b905061021f83610877565b9250838310801561028557508173ffffffffffffffffffffffffffffffffffffffff1687878581811061025557610254610f96565b5b905060a00201602001602081019061026d9190610f69565b73ffffffffffffffffffffffffffffffffffffffff16145b6101ec576102938282610884565b50610124565b60005b838110156105825773eeeeeeeeeeeeeeeeeeeeeeeeeeeeeeeeeeeeeeee73ffffffffffffffffffffffffffffffffffffffff168787838181106102e2576102e1610f96565b5b905060a0020160200160208101906102fa9190610f69565b73ffffffffffffffffffffffffffffffffffffffff1603610435577f000000000000000000000000000000000000000000000000000000000000000073ffffffffffffffffffffffffffffffffffffffff1663beb9addf8989898581811061036557610364610f96565b5b905060a00201604001356103799190610ff4565b89898581811061038c5761038b610f96565b5b905060a0020160000160208101906103a49190610f69565b8b8b8b878181106103b8576103b7610f96565b5b905060a00201606001358c8c888181106103d5576103d4610f96565b5b905060a00201608001356040518663ffffffff1660e01b81526004016103fe9493929190611071565b6000604051808303818588803b15801561041757600080fd5b505af115801561042b573d6000803e3d6000fd5b5050505050610572565b7f000000000000000000000000000000000000000000000000000000000000000073ffffffffffffffffffffffffffffffffffffffff1663b9bfabe18989898581811061048557610484610f96565b5b905060a00201600001602081019061049d9190610f69565b8a8a868181106104b0576104af610f96565b5b905060a0020160200160208101906104c89190610f69565b8b8b878181106104db576104da610f96565b5b905060a00201604001358c8c888181106104f8576104f7610f96565b5b905060a00201606001358d8d8981811061051557610514610f96565b5b905060a00201608001356040518763ffffffff1660e01b815260040161053f9594939291906110b6565b6000604051808303818588803b15801561055857600080fd5b505af115801561056c573d6000803e3d6000fd5b50505050505b61057b81610877565b905061029c565b50348461058f9190611109565b47146105c7576040517f8e96d31f00000000000000000000000000000000000000000000000000000000815260040160405180910390fd5b3373ffffffffffffffffffffffffffffffffffffffff167f5b4aa4fdb7b6e3ce88c3ccbf2e2c1d9a01b28e4234e107b644111c59de8b7cbe60405160405180910390a250505050505050565b61061b610735565b6106867f00000000000000000000000000000000000000000000000000000000000000007fffffffffffffffffffffffffffffffffffffffffffffffffffffffffffffffff8373ffffffffffffffffffffffffffffffffffffffff166108fd9092919063ffffffff16565b50565b60008060009054906101000a900473ffffffffffffffffffffffffffffffffffffffff16905090565b6106ba610735565b600073ffffffffffffffffffffffffffffffffffffffff168173ffffffffffffffffffffffffffffffffffffffff1603610729576040517f08c379a0000000000000000000000000000000000000000000000000000000008152600401610720906111c0565b60405180910390fd5b610732816107b3565b50565b61073d610a4c565b73ffffffffffffffffffffffffffffffffffffffff1661075b610689565b73ffffffffffffffffffffffffffffffffffffffff16146107b1576040517f08c379a00000000000000000000000000000000000000000000000000000000081526004016107a89061122c565b60405180910390fd5b565b60008060009054906101000a900473ffffffffffffffffffffffffffffffffffffffff169050816000806101000a81548173ffffffffffffffffffffffffffffffffffffffff021916908373ffffffffffffffffffffffffffffffffffffffff1602179055508173ffffffffffffffffffffffffffffffffffffffff168173ffffffffffffffffffffffffffffffffffffffff167f8be0079c531659141344cd1fd0a4f28419497f9722a3daafe3b4186f6b6457e060405160405180910390a35050565b6000600182019050919050565b73eeeeeeeeeeeeeeeeeeeeeeeeeeeeeeeeeeeeeeee73ffffffffffffffffffffffffffffffffffffffff168273ffffffffffffffffffffffffffffffffffffffff16146108f9576108f83330838573ffffffffffffffffffffffffffffffffffffffff16610a54909392919063ffffffff16565b5b5050565b6000811480610987575060008373ffffffffffffffffffffffffffffffffffffffff1663dd62ed3e30856040518363ffffffff1660e01b815260040161094492919061124c565b602060405180830381865afa158015610961573d6000803e3d6000fd5b505050506040513d601f19601f82011682018060405250810190610985919061128a565b145b6109c6576040517f08c379a00000000000000000000000000000000000000000000000000000000081526004016109bd90611329565b60405180910390fd5b610a478363095ea7b360e01b84846040516024016109e5929190611349565b604051602081830303815290604052907bffffffffffffffffffffffffffffffffffffffffffffffffffffffff19166020820180517bffffffffffffffffffffffffffffffffffffffffffffffffffffffff8381831617835250505050610add565b505050565b600033905090565b610ad7846323b872dd60e01b858585604051602401610a7593929190611372565b604051602081830303815290604052907bffffffffffffffffffffffffffffffffffffffffffffffffffffffff19166020820180517bffffffffffffffffffffffffffffffffffffffffffffffffffffffff8381831617835250505050610add565b50505050565b6000610b3f826040518060400160405280602081526020017f5361666545524332303a206c6f772d6c6576656c2063616c6c206661696c65648152508573ffffffffffffffffffffffffffffffffffffffff16610ba49092919063ffffffff16565b9050600081511115610b9f5780806020019051810190610b5f91906113e1565b610b9e576040517f08c379a0000000000000000000000000000000000000000000000000000000008152600401610b9590611480565b60405180910390fd5b5b505050565b6060610bb38484600085610bbc565b90509392505050565b606082471015610c01576040517f08c379a0000000000000000000000000000000000000000000000000000000008152600401610bf890611512565b60405180910390fd5b6000808673ffffffffffffffffffffffffffffffffffffffff168587604051610c2a91906115a3565b60006040518083038185875af1925050503d8060008114610c67576040519150601f19603f3d011682016040523d82523d6000602084013e610c6c565b606091505b5091509150610c7d87838387610c89565b92505050949350505050565b60608315610ceb576000835103610ce357610ca385610cfe565b610ce2576040517f08c379a0000000000000000000000000000000000000000000000000000000008152600401610cd990611606565b60405180910390fd5b5b829050610cf6565b610cf58383610d21565b5b949350505050565b6000808273ffffffffffffffffffffffffffffffffffffffff163b119050919050565b600082511115610d345781518083602001fd5b806040517f08c379a0000000000000000000000000000000000000000000000000000000008152600401610d68919061167b565b60405180910390fd5b600080fd5b600080fd5b6000819050919050565b610d8e81610d7b565b8114610d9957600080fd5b50565b600081359050610dab81610d85565b92915050565b600080fd5b600080fd5b600080fd5b60008083601f840112610dd657610dd5610db1565b5b8235905067ffffffffffffffff811115610df357610df2610db6565b5b6020830191508360a0820283011115610e0f57610e0e610dbb565b5b9250929050565b600080600060408486031215610e2f57610e2e610d71565b5b6000610e3d86828701610d9c565b935050602084013567ffffffffffffffff811115610e5e57610e5d610d76565b5b610e6a86828701610dc0565b92509250509250925092565b600073ffffffffffffffffffffffffffffffffffffffff82169050919050565b6000610ea182610e76565b9050919050565b6000610eb382610e96565b9050919050565b610ec381610ea8565b8114610ece57600080fd5b50565b600081359050610ee081610eba565b92915050565b600060208284031215610efc57610efb610d71565b5b6000610f0a84828501610ed1565b91505092915050565b610f1c81610e96565b82525050565b6000602082019050610f376000830184610f13565b92915050565b610f4681610e96565b8114610f5157600080fd5b50565b600081359050610f6381610f3d565b92915050565b600060208284031215610f7f57610f7e610d71565b5b6000610f8d84828501610f54565b91505092915050565b7f4e487b7100000000000000000000000000000000000000000000000000000000600052603260045260246000fd5b7f4e487b7100000000000000000000000000000000000000000000000000000000600052601160045260246000fd5b6000610fff82610d7b565b915061100a83610d7b565b925082820190508082111561102257611021610fc5565b5b92915050565b600061103382610e76565b9050919050565b61104381611028565b82525050565b61105281610d7b565b82525050565b6000819050919050565b61106b81611058565b82525050565b6000608082019050611086600083018761103a565b6110936020830186611049565b6110a06040830185611062565b6110ad6060830184611062565b95945050505050565b600060a0820190506110cb6000830188610f13565b6110d86020830187610f13565b6110e56040830186611049565b6110f26060830185611062565b6110ff6080830184611062565b9695505050505050565b600061111482610d7b565b915061111f83610d7b565b925082820390508181111561113757611136610fc5565b5b92915050565b600082825260208201905092915050565b7f4f776e61626c653a206e6577206f776e657220697320746865207a65726f206160008201527f6464726573730000000000000000000000000000000000000000000000000000602082015250565b60006111aa60268361113d565b91506111b58261114e565b604082019050919050565b600060208201905081810360008301526111d98161119d565b9050919050565b7f4f776e61626c653a2063616c6c6572206973206e6f7420746865206f776e6572600082015250565b600061121660208361113d565b9150611221826111e0565b602082019050919050565b6000602082019050818103600083015261124581611209565b9050919050565b60006040820190506112616000830185610f13565b61126e6020830184610f13565b9392505050565b60008151905061128481610d85565b92915050565b6000602082840312156112a05761129f610d71565b5b60006112ae84828501611275565b91505092915050565b7f5361666545524332303a20617070726f76652066726f6d206e6f6e2d7a65726f60008201527f20746f206e6f6e2d7a65726f20616c6c6f77616e636500000000000000000000602082015250565b600061131360368361113d565b915061131e826112b7565b604082019050919050565b6000602082019050818103600083015261134281611306565b9050919050565b600060408201905061135e6000830185610f13565b61136b6020830184611049565b9392505050565b60006060820190506113876000830186610f13565b6113946020830185610f13565b6113a16040830184611049565b949350505050565b60008115159050919050565b6113be816113a9565b81146113c957600080fd5b50565b6000815190506113db816113b5565b92915050565b6000602082840312156113f7576113f6610d71565b5b6000611405848285016113cc565b91505092915050565b7f5361666545524332303a204552433230206f7065726174696f6e20646964206e60008201527f6f74207375636365656400000000000000000000000000000000000000000000602082015250565b600061146a602a8361113d565b91506114758261140e565b604082019050919050565b600060208201905081810360008301526114998161145d565b9050919050565b7f416464726573733a20696e73756666696369656e742062616c616e636520666f60008201527f722063616c6c0000000000000000000000000000000000000000000000000000602082015250565b60006114fc60268361113d565b9150611507826114a0565b604082019050919050565b6000602082019050818103600083015261152b816114ef565b9050919050565b600081519050919050565b600081905092915050565b60005b8381101561156657808201518184015260208101905061154b565b60008484015250505050565b600061157d82611532565b611587818561153d565b9350611597818560208601611548565b80840191505092915050565b60006115af8284611572565b915081905092915050565b7f416464726573733a2063616c6c20746f206e6f6e2d636f6e7472616374000000600082015250565b60006115f0601d8361113d565b91506115fb826115ba565b602082019050919050565b6000602082019050818103600083015261161f816115e3565b9050919050565b600081519050919050565b6000601f19601f8301169050919050565b600061164d82611626565b611657818561113d565b9350611667818560208601611548565b61167081611631565b840191505092915050565b600060208201905081810360008301526116958184611642565b90509291505056fea2646970667358221220e6a17fb8f0327e67a380f188bc695ac93706ee7ff48d7b1ce8084cb7c16102d264736f6c63430008110033",
  "linkReferences": {},
  "deployedLinkReferences": {}
}